{
  "_format": "hh-sol-artifact-1",
  "contractName": "FHELendingPool",
  "sourceName": "contracts/FHELendingPool.sol",
  "abi": [
    {
      "inputs": [],
      "stateMutability": "nonpayable",
      "type": "constructor"
    },
    {
      "anonymous": false,
      "inputs": [
        {
          "indexed": true,
          "internalType": "address",
          "name": "user",
          "type": "address"
        },
        {
          "indexed": false,
          "internalType": "uint256",
          "name": "ethAmount",
          "type": "uint256"
        }
      ],
      "name": "Borrowed",
      "type": "event"
    },
    {
      "anonymous": false,
      "inputs": [
        {
          "indexed": true,
          "internalType": "address",
          "name": "user",
          "type": "address"
        },
        {
          "indexed": false,
          "internalType": "uint256",
          "name": "ethAmount",
          "type": "uint256"
        }
      ],
      "name": "Deposited",
      "type": "event"
    },
    {
      "anonymous": false,
      "inputs": [
        {
          "indexed": true,
          "internalType": "address",
          "name": "user",
          "type": "address"
        },
        {
          "indexed": false,
          "internalType": "uint256",
          "name": "ethAmount",
          "type": "uint256"
        }
      ],
      "name": "Repaid",
      "type": "event"
    },
    {
      "anonymous": false,
      "inputs": [
        {
          "indexed": true,
          "internalType": "address",
          "name": "user",
          "type": "address"
        },
        {
          "indexed": false,
          "internalType": "uint256",
          "name": "ethAmount",
          "type": "uint256"
        }
      ],
      "name": "Withdrawn",
      "type": "event"
    },
    {
      "inputs": [
        {
          "internalType": "address",
          "name": "",
          "type": "address"
        }
      ],
      "name": "accounts",
      "outputs": [
        {
          "internalType": "euint64",
          "name": "encryptedDeposited",
          "type": "bytes32"
        },
        {
          "internalType": "euint64",
          "name": "encryptedBorrowed",
          "type": "bytes32"
        },
        {
          "internalType": "uint256",
          "name": "lastUpdate",
          "type": "uint256"
        },
        {
          "internalType": "bool",
          "name": "isActive",
          "type": "bool"
        }
      ],
      "stateMutability": "view",
      "type": "function"
    },
    {
      "inputs": [],
      "name": "admin",
      "outputs": [
        {
          "internalType": "address",
          "name": "",
          "type": "address"
        }
      ],
      "stateMutability": "view",
      "type": "function"
    },
    {
      "inputs": [
        {
          "internalType": "externalEuint64",
          "name": "encryptedAmount",
          "type": "bytes32"
        },
        {
          "internalType": "bytes",
          "name": "inputProof",
          "type": "bytes"
        },
        {
          "internalType": "uint256",
          "name": "plaintextAmount",
          "type": "uint256"
        }
      ],
      "name": "borrow",
      "outputs": [],
      "stateMutability": "nonpayable",
      "type": "function"
    },
    {
      "inputs": [],
      "name": "collateralRatio",
      "outputs": [
        {
          "internalType": "uint256",
          "name": "",
          "type": "uint256"
        }
      ],
      "stateMutability": "view",
      "type": "function"
    },
    {
      "inputs": [
        {
          "internalType": "externalEuint64",
          "name": "encryptedAmount",
          "type": "bytes32"
        },
        {
          "internalType": "bytes",
          "name": "inputProof",
          "type": "bytes"
        }
      ],
      "name": "deposit",
      "outputs": [],
      "stateMutability": "payable",
      "type": "function"
    },
    {
      "inputs": [
        {
          "internalType": "address",
          "name": "user",
          "type": "address"
        }
      ],
      "name": "getEncryptedAccount",
      "outputs": [
        {
          "internalType": "euint64",
          "name": "encryptedDeposited",
          "type": "bytes32"
        },
        {
          "internalType": "euint64",
          "name": "encryptedBorrowed",
          "type": "bytes32"
        }
      ],
      "stateMutability": "view",
      "type": "function"
    },
    {
      "inputs": [],
      "name": "getPoolStats",
      "outputs": [
        {
          "internalType": "uint256",
          "name": "totalBalance",
          "type": "uint256"
        },
        {
          "internalType": "uint256",
          "name": "activeUsers",
          "type": "uint256"
        },
        {
          "internalType": "uint256",
          "name": "rate",
          "type": "uint256"
        }
      ],
      "stateMutability": "view",
      "type": "function"
    },
    {
      "inputs": [],
      "name": "interestRate",
      "outputs": [
        {
          "internalType": "uint256",
          "name": "",
          "type": "uint256"
        }
      ],
      "stateMutability": "view",
      "type": "function"
    },
    {
      "inputs": [
        {
          "internalType": "address",
          "name": "user",
          "type": "address"
        }
      ],
      "name": "isUserActive",
      "outputs": [
        {
          "internalType": "bool",
          "name": "",
          "type": "bool"
        }
      ],
      "stateMutability": "view",
      "type": "function"
    },
    {
      "inputs": [],
      "name": "protocolId",
      "outputs": [
        {
          "internalType": "uint256",
          "name": "",
          "type": "uint256"
        }
      ],
      "stateMutability": "pure",
      "type": "function"
    },
    {
      "inputs": [
        {
          "internalType": "externalEuint64",
          "name": "encryptedAmount",
          "type": "bytes32"
        },
        {
          "internalType": "bytes",
          "name": "inputProof",
          "type": "bytes"
        }
      ],
      "name": "repay",
      "outputs": [],
      "stateMutability": "payable",
      "type": "function"
    },
    {
      "inputs": [],
      "name": "requestBalanceAccess",
      "outputs": [],
      "stateMutability": "nonpayable",
      "type": "function"
    },
    {
      "inputs": [
        {
          "internalType": "uint256",
          "name": "newRatio",
          "type": "uint256"
        }
      ],
      "name": "setCollateralRatio",
      "outputs": [],
      "stateMutability": "nonpayable",
      "type": "function"
    },
    {
      "inputs": [
        {
          "internalType": "uint256",
          "name": "newRate",
          "type": "uint256"
        }
      ],
      "name": "setInterestRate",
      "outputs": [],
      "stateMutability": "nonpayable",
      "type": "function"
    },
    {
      "inputs": [],
      "name": "totalETHBalance",
      "outputs": [
        {
          "internalType": "uint256",
          "name": "",
          "type": "uint256"
        }
      ],
      "stateMutability": "view",
      "type": "function"
    },
    {
      "inputs": [],
      "name": "userCount",
      "outputs": [
        {
          "internalType": "uint256",
          "name": "",
          "type": "uint256"
        }
      ],
      "stateMutability": "view",
      "type": "function"
    },
    {
      "inputs": [
        {
          "internalType": "uint256",
          "name": "",
          "type": "uint256"
        }
      ],
      "name": "userList",
      "outputs": [
        {
          "internalType": "address",
          "name": "",
          "type": "address"
        }
      ],
      "stateMutability": "view",
      "type": "function"
    },
    {
      "inputs": [
        {
          "internalType": "externalEuint64",
          "name": "encryptedAmount",
          "type": "bytes32"
        },
        {
          "internalType": "bytes",
          "name": "inputProof",
          "type": "bytes"
        },
        {
          "internalType": "uint256",
          "name": "plaintextAmount",
          "type": "uint256"
        }
      ],
      "name": "withdraw",
      "outputs": [],
      "stateMutability": "nonpayable",
      "type": "function"
    },
    {
      "stateMutability": "payable",
      "type": "receive"
    }
  ],
  "bytecode": "0x60806040526101f4600555609660065534801561001a575f80fd5b506101956100b9604080516080810182525f80825260208201819052918101829052606081019190915250604080516080810182527350157cffd6bbfa2dece204a89ec419c23ef5755d815273cd3ab3bd6bcc0c0bf3e27912a92043e817b1cf69602082015273a02cda4ca3a71d7c46997716f4283aa851c2881291810191909152731364cbbf2cdf5032c47d8226a6f6fbd2afcdacac606082015290565b80517f9e7b61f58c47dc699ac88507c4f5bb9f121c03808c5676a8078fe583e464970080546001600160a01b03199081166001600160a01b039384161790915560208301517f9e7b61f58c47dc699ac88507c4f5bb9f121c03808c5676a8078fe583e46497018054831691841691909117905560408301517f9e7b61f58c47dc699ac88507c4f5bb9f121c03808c5676a8078fe583e46497028054831691841691909117905560608301517f9e7b61f58c47dc699ac88507c4f5bb9f121c03808c5676a8078fe583e46497038054909216921691909117905550565b5f80546001600160a01b03191633179055611356806101b35f395ff3fe608060405260043610610108575f3560e01c8063b4eae1cb11610092578063da1f12ab11610062578063da1f12ab14610376578063e29973fc1461038a578063f61ff5681461039d578063f851a440146103b0578063fef2acae146103ce575f80fd5b8063b4eae1cb146102c1578063bbb85188146102d6578063cfc09b7d14610306578063cfc858ff14610357575f80fd5b80636b37c89d116100d85780636b37c89d146101f85780636d6bfb73146102175780637c3a00fd1461022b5780639ee20b15146102405780639f4216e81461028a575f80fd5b806307973ccf1461012a5780635e5c06e2146101525780635f84f302146101b85780636060663e146101d9575f80fd5b36610126573460035f82825461011e91906110c6565b925050819055005b5f80fd5b348015610135575f80fd5b5061013f60045481565b6040519081526020015b60405180910390f35b34801561015d575f80fd5b5061019661016c3660046110d9565b600160208190525f9182526040909120805491810154600282015460039092015490919060ff1684565b6040805194855260208501939093529183015215156060820152608001610149565b3480156101c3575f80fd5b506101d76101d2366004611106565b6103e3565b005b3480156101e4575f80fd5b506101d76101f3366004611106565b610475565b348015610203575f80fd5b506101d7610212366004611162565b61050f565b348015610222575f80fd5b506101d7610755565b348015610236575f80fd5b5061013f60055481565b34801561024b575f80fd5b5061027a61025a3660046110d9565b6001600160a01b03165f9081526001602052604090206003015460ff1690565b6040519015158152602001610149565b348015610295575f80fd5b506102a96102a4366004611106565b610784565b6040516001600160a01b039091168152602001610149565b3480156102cc575f80fd5b5061013f60065481565b3480156102e1575f80fd5b5060035460045460055460408051938452602084019290925290820152606001610149565b348015610311575f80fd5b506103426103203660046110d9565b6001600160a01b03165f90815260016020819052604090912080549101549091565b60408051928352602083019190915201610149565b348015610362575f80fd5b506101d7610371366004611162565b6107ac565b348015610381575f80fd5b5061271161013f565b6101d76103983660046111b1565b6109da565b6101d76103ab3660046111b1565b610b78565b3480156103bb575f80fd5b505f546102a9906001600160a01b031681565b3480156103d9575f80fd5b5061013f60035481565b5f546001600160a01b0316331461042e5760405162461bcd60e51b815260206004820152600a60248201526927b7363c9030b236b4b760b11b60448201526064015b60405180910390fd5b6127108111156104705760405162461bcd60e51b815260206004820152600d60248201526c0a4c2e8ca40e8dede40d0d2ced609b1b6044820152606401610425565b600555565b5f546001600160a01b031633146104bb5760405162461bcd60e51b815260206004820152600a60248201526927b7363c9030b236b4b760b11b6044820152606401610425565b606481101580156104ce575061012c8111155b61050a5760405162461bcd60e51b815260206004820152600d60248201526c496e76616c696420726174696f60981b6044820152606401610425565b600655565b335f908152600160205260409020600381015460ff166105625760405162461bcd60e51b815260206004820152600e60248201526d139bdd081c9959da5cdd195c995960921b6044820152606401610425565b5f82116105a25760405162461bcd60e51b815260206004820152600e60248201526d125b9d985b1a5908185b5bdd5b9d60921b6044820152606401610425565b814710156105f25760405162461bcd60e51b815260206004820152601b60248201527f496e73756666696369656e7420706f6f6c206c697175696469747900000000006044820152606401610425565b5f6106328686868080601f0160208091040260200160405190810160405280939291908181526020018383808284375f92019190915250610cce92505050565b905061063d81610ce4565b5060018201541561066057610656826001015482610cf3565b6001830155610668565b600182018190555b6106758260010154610ce4565b50610684826001015433610d21565b504260028301556040515f90339085908381818185875af1925050503d805f81146106ca576040519150601f19603f3d011682016040523d82523d5f602084013e6106cf565b606091505b50509050806107165760405162461bcd60e51b8152602060048201526013602482015272115512081d1c985b9cd9995c8819985a5b1959606a1b6044820152606401610425565b60405184815233907fac59582e5396aca512fa873a2047e7f4c80f8f55d4a06cb34a78a0187f62719f906020015b60405180910390a250505050505050565b335f818152600160205260409020805490916107719190610d21565b50610780816001015433610d21565b5050565b60028181548110610793575f80fd5b5f918252602090912001546001600160a01b0316905081565b335f908152600160205260409020600381015460ff166107fc5760405162461bcd60e51b815260206004820152600b60248201526a4e6f206465706f7369747360a81b6044820152606401610425565b5f821161083c5760405162461bcd60e51b815260206004820152600e60248201526d125b9d985b1a5908185b5bdd5b9d60921b6044820152606401610425565b8147101561088c5760405162461bcd60e51b815260206004820152601b60248201527f496e73756666696369656e7420706f6f6c206c697175696469747900000000006044820152606401610425565b5f6108cc8686868080601f0160208091040260200160405190810160405280939291908181526020018383808284375f92019190915250610cce92505050565b90506108d781610ce4565b5081546108e49082610d33565b8083556108f090610ce4565b5081546108fd9033610d21565b504282600201819055508260035f82825461091891906111f9565b90915550506040515f90339085908381818185875af1925050503d805f811461095c576040519150601f19603f3d011682016040523d82523d5f602084013e610961565b606091505b50509050806109a85760405162461bcd60e51b8152602060048201526013602482015272115512081d1c985b9cd9995c8819985a5b1959606a1b6044820152606401610425565b60405184815233907f7084f5476618d8e60b11ef0d7d3f06914655adb8793e28ff7f018d4c76d505d590602001610744565b5f3411610a1c5760405162461bcd60e51b815260206004820152601060248201526f09aeae6e840c8cae0dee6d2e8408aa8960831b6044820152606401610425565b5f610a5c8484848080601f0160208091040260200160405190810160405280939291908181526020018383808284375f92019190915250610cce92505050565b9050610a6781610ce4565b50335f908152600160205260409020600381015460ff16610ae557600280546001810182555f9182527f405787fa12a823e0f2b7631cc41b3ba8828b3321ca811111fa75cd3aa3bb5ace0180546001600160a01b031916331790556004805491610ad08361120c565b909155505060038101805460ff191660011790555b805415610aff578054610af89083610cf3565b8155610b03565b8181555b8054610b0e90610ce4565b508054610b1b9033610d21565b504281600201819055503460035f828254610b3691906110c6565b909155505060405134815233907f2da466a7b24304f47e87fa2e1e5a81b9831ce54fec19055ce277ca2f39ba42c4906020015b60405180910390a25050505050565b5f3411610bb85760405162461bcd60e51b815260206004820152600e60248201526d09aeae6e840e4cae0c2f2408aa8960931b6044820152606401610425565b335f90815260016020819052604090912090810154610c035760405162461bcd60e51b8152602060048201526007602482015266139bc81919589d60ca1b6044820152606401610425565b5f610c438585858080601f0160208091040260200160405190810160405280939291908181526020018383808284375f92019190915250610cce92505050565b9050610c4e81610ce4565b50610c5d826001015482610d33565b60018301819055610c6d90610ce4565b50610c7c826001015433610d21565b504282600201819055503460035f828254610c9791906110c6565b909155505060405134815233907f0516911bcc3a0a7412a44601057c0a0a1ec628bde049a84284bc42886653448890602001610b69565b5f610cdb83836005610d61565b90505b92915050565b5f610cef8230610e5b565b5090565b5f82610d0557610d025f610ed1565b92505b81610d1657610d135f610ed1565b91505b610cdb83835f610ee7565b5f610d2c8383610e5b565b5090919050565b5f82610d4557610d425f610ed1565b92505b81610d5657610d535f610ed1565b91505b610cdb83835f610fa4565b5f805160206112e18339815191525460405163196d0b9b60e01b81525f915f80516020611301833981519152916001600160a01b039091169063196d0b9b90610db4908890339089908990600401611244565b6020604051808303815f875af1158015610dd0573d5f803e3d5ffd5b505050506040513d601f19601f82011682018060405250810190610df491906112b5565b8154604051630f8e573b60e21b8152600481018390523360248201529193506001600160a01b031690633e395cec906044015f604051808303815f87803b158015610e3d575f80fd5b505af1158015610e4f573d5f803e3d5ffd5b50505050509392505050565b5f5f805160206113018339815191528054604051635ca4b5b160e11b8152600481018690526001600160a01b03858116602483015292935091169063b9496b62906044015f604051808303815f87803b158015610eb6575f80fd5b505af1158015610ec8573d5f803e3d5ffd5b50505050505050565b5f610cde8267ffffffffffffffff16600561101b565b5f808215610efa5750600160f81b610efd565b505f5b5f805160206112e18339815191525460405163022f65e760e31b815260048101879052602481018690526001600160f81b0319831660448201525f80516020611301833981519152916001600160a01b03169063117b2f38906064015b6020604051808303815f875af1158015610f76573d5f803e3d5ffd5b505050506040513d601f19601f82011682018060405250810190610f9a91906112b5565b9695505050505050565b5f808215610fb75750600160f81b610fba565b505f5b5f805160206112e1833981519152546040516303056db360e31b815260048101879052602481018690526001600160f81b0319831660448201525f80516020611301833981519152916001600160a01b03169063182b6d9890606401610f5a565b5f805160206112e183398151915254604051639cd07acb60e01b81525f915f80516020611301833981519152916001600160a01b0390911690639cd07acb9061106a90879087906004016112cc565b6020604051808303815f875af1158015611086573d5f803e3d5ffd5b505050506040513d601f19601f820116820180604052508101906110aa91906112b5565b949350505050565b634e487b7160e01b5f52601160045260245ffd5b80820180821115610cde57610cde6110b2565b5f602082840312156110e9575f80fd5b81356001600160a01b03811681146110ff575f80fd5b9392505050565b5f60208284031215611116575f80fd5b5035919050565b5f8083601f84011261112d575f80fd5b50813567ffffffffffffffff811115611144575f80fd5b60208301915083602082850101111561115b575f80fd5b9250929050565b5f805f8060608587031215611175575f80fd5b84359350602085013567ffffffffffffffff811115611192575f80fd5b61119e8782880161111d565b9598909750949560400135949350505050565b5f805f604084860312156111c3575f80fd5b83359250602084013567ffffffffffffffff8111156111e0575f80fd5b6111ec8682870161111d565b9497909650939450505050565b81810381811115610cde57610cde6110b2565b5f6001820161121d5761121d6110b2565b5060010190565b6054811061124057634e487b7160e01b5f52602160045260245ffd5b9052565b8481525f602060018060a01b03861660208401526080604084015284518060808501525f5b818110156112855786810183015185820160a001528201611269565b505f60a0828601015260a0601f19601f830116850101925050506112ac6060830184611224565b95945050505050565b5f602082840312156112c5575f80fd5b5051919050565b828152604081016110ff602083018461122456fe9e7b61f58c47dc699ac88507c4f5bb9f121c03808c5676a8078fe583e46497019e7b61f58c47dc699ac88507c4f5bb9f121c03808c5676a8078fe583e4649700a2646970667358221220f26388e8ccdf6fafef6e99f1997a529b35606b375decf1c098c626c67e93582864736f6c63430008180033",
  "linkReferences": {},
  "deployedLinkReferences": {}
}