{
  "_format": "hh-sol-artifact-1",
  "contractName": "SimpleLendingPool",
  "sourceName": "contracts/SimpleLendingPool.sol",
  "abi": [
    {
      "inputs": [],
      "stateMutability": "nonpayable",
      "type": "constructor"
    },
    {
      "anonymous": false,
      "inputs": [
        {
          "indexed": true,
          "internalType": "address",
          "name": "user",
          "type": "address"
        },
        {
          "indexed": false,
          "internalType": "uint256",
          "name": "amount",
          "type": "uint256"
        }
      ],
      "name": "Borrowed",
      "type": "event"
    },
    {
      "anonymous": false,
      "inputs": [
        {
          "indexed": true,
          "internalType": "address",
          "name": "user",
          "type": "address"
        },
        {
          "indexed": false,
          "internalType": "uint256",
          "name": "amount",
          "type": "uint256"
        }
      ],
      "name": "Deposited",
      "type": "event"
    },
    {
      "anonymous": false,
      "inputs": [
        {
          "indexed": true,
          "internalType": "address",
          "name": "user",
          "type": "address"
        },
        {
          "indexed": false,
          "internalType": "uint256",
          "name": "amount",
          "type": "uint256"
        }
      ],
      "name": "Repaid",
      "type": "event"
    },
    {
      "anonymous": false,
      "inputs": [
        {
          "indexed": true,
          "internalType": "address",
          "name": "user",
          "type": "address"
        },
        {
          "indexed": false,
          "internalType": "uint256",
          "name": "amount",
          "type": "uint256"
        }
      ],
      "name": "Withdrawn",
      "type": "event"
    },
    {
      "inputs": [
        {
          "internalType": "address",
          "name": "",
          "type": "address"
        }
      ],
      "name": "accounts",
      "outputs": [
        {
          "internalType": "uint256",
          "name": "deposited",
          "type": "uint256"
        },
        {
          "internalType": "uint256",
          "name": "borrowed",
          "type": "uint256"
        },
        {
          "internalType": "uint256",
          "name": "lastUpdate",
          "type": "uint256"
        }
      ],
      "stateMutability": "view",
      "type": "function"
    },
    {
      "inputs": [],
      "name": "admin",
      "outputs": [
        {
          "internalType": "address",
          "name": "",
          "type": "address"
        }
      ],
      "stateMutability": "view",
      "type": "function"
    },
    {
      "inputs": [
        {
          "internalType": "uint256",
          "name": "amount",
          "type": "uint256"
        }
      ],
      "name": "borrow",
      "outputs": [],
      "stateMutability": "nonpayable",
      "type": "function"
    },
    {
      "inputs": [],
      "name": "collateralRatio",
      "outputs": [
        {
          "internalType": "uint256",
          "name": "",
          "type": "uint256"
        }
      ],
      "stateMutability": "view",
      "type": "function"
    },
    {
      "inputs": [],
      "name": "deposit",
      "outputs": [],
      "stateMutability": "payable",
      "type": "function"
    },
    {
      "inputs": [
        {
          "internalType": "uint256",
          "name": "amount",
          "type": "uint256"
        }
      ],
      "name": "emergencyWithdraw",
      "outputs": [],
      "stateMutability": "nonpayable",
      "type": "function"
    },
    {
      "inputs": [
        {
          "internalType": "address",
          "name": "user",
          "type": "address"
        }
      ],
      "name": "getAccount",
      "outputs": [
        {
          "internalType": "uint256",
          "name": "deposited",
          "type": "uint256"
        },
        {
          "internalType": "uint256",
          "name": "borrowed",
          "type": "uint256"
        },
        {
          "internalType": "uint256",
          "name": "availableToBorrow",
          "type": "uint256"
        },
        {
          "internalType": "uint256",
          "name": "healthFactor",
          "type": "uint256"
        }
      ],
      "stateMutability": "view",
      "type": "function"
    },
    {
      "inputs": [],
      "name": "getPoolStats",
      "outputs": [
        {
          "internalType": "uint256",
          "name": "totalValueLocked",
          "type": "uint256"
        },
        {
          "internalType": "uint256",
          "name": "totalBorrowedAmount",
          "type": "uint256"
        },
        {
          "internalType": "uint256",
          "name": "availableLiquidity",
          "type": "uint256"
        },
        {
          "internalType": "uint256",
          "name": "utilizationRate",
          "type": "uint256"
        }
      ],
      "stateMutability": "view",
      "type": "function"
    },
    {
      "inputs": [],
      "name": "getUserCount",
      "outputs": [
        {
          "internalType": "uint256",
          "name": "",
          "type": "uint256"
        }
      ],
      "stateMutability": "view",
      "type": "function"
    },
    {
      "inputs": [],
      "name": "interestRate",
      "outputs": [
        {
          "internalType": "uint256",
          "name": "",
          "type": "uint256"
        }
      ],
      "stateMutability": "view",
      "type": "function"
    },
    {
      "inputs": [],
      "name": "repay",
      "outputs": [],
      "stateMutability": "payable",
      "type": "function"
    },
    {
      "inputs": [
        {
          "internalType": "uint256",
          "name": "newRatio",
          "type": "uint256"
        }
      ],
      "name": "setCollateralRatio",
      "outputs": [],
      "stateMutability": "nonpayable",
      "type": "function"
    },
    {
      "inputs": [
        {
          "internalType": "uint256",
          "name": "newRate",
          "type": "uint256"
        }
      ],
      "name": "setInterestRate",
      "outputs": [],
      "stateMutability": "nonpayable",
      "type": "function"
    },
    {
      "inputs": [],
      "name": "totalBorrowed",
      "outputs": [
        {
          "internalType": "uint256",
          "name": "",
          "type": "uint256"
        }
      ],
      "stateMutability": "view",
      "type": "function"
    },
    {
      "inputs": [],
      "name": "totalDeposits",
      "outputs": [
        {
          "internalType": "uint256",
          "name": "",
          "type": "uint256"
        }
      ],
      "stateMutability": "view",
      "type": "function"
    },
    {
      "inputs": [
        {
          "internalType": "uint256",
          "name": "",
          "type": "uint256"
        }
      ],
      "name": "userList",
      "outputs": [
        {
          "internalType": "address",
          "name": "",
          "type": "address"
        }
      ],
      "stateMutability": "view",
      "type": "function"
    },
    {
      "inputs": [
        {
          "internalType": "uint256",
          "name": "amount",
          "type": "uint256"
        }
      ],
      "name": "withdraw",
      "outputs": [],
      "stateMutability": "nonpayable",
      "type": "function"
    },
    {
      "stateMutability": "payable",
      "type": "receive"
    }
  ],
  "bytecode": "0x60806040526101f4600555609660065534801561001a575f80fd5b505f80546001600160a01b03191633179055610e67806100395f395ff3fe6080604052600436106100fd575f3560e01c80637d88209711610092578063bbb8518811610062578063bbb85188146102df578063c5ebeaec14610313578063d0e30db014610332578063f851a4401461033a578063fbcbc0f114610358575f80fd5b80637d8820971461026a5780639f4216e81461027f578063b4eae1cb146102b6578063b5cb15f7146102cb575f80fd5b80635e5c06e2116100cd5780635e5c06e2146101c35780635f84f302146102175780636060663e146102365780637c3a00fd14610255575f80fd5b80632e1a7d4d14610153578063402d8883146101745780634c19386c1461017c5780635312ea8e146101a4575f80fd5b3661014f573460035f8282546101139190610d67565b909155505060405134815233907f2da466a7b24304f47e87fa2e1e5a81b9831ce54fec19055ce277ca2f39ba42c49060200160405180910390a2005b5f80fd5b34801561015e575f80fd5b5061017261016d366004610d80565b610377565b005b61017261058f565b348015610187575f80fd5b5061019160045481565b6040519081526020015b60405180910390f35b3480156101af575f80fd5b506101726101be366004610d80565b610744565b3480156101ce575f80fd5b506101fc6101dd366004610d97565b600160208190525f918252604090912080549181015460029091015483565b6040805193845260208401929092529082015260600161019b565b348015610222575f80fd5b50610172610231366004610d80565b61084a565b348015610241575f80fd5b50610172610250366004610d80565b6108ba565b348015610260575f80fd5b5061019160055481565b348015610275575f80fd5b5061019160035481565b34801561028a575f80fd5b5061029e610299366004610d80565b610937565b6040516001600160a01b03909116815260200161019b565b3480156102c1575f80fd5b5061019160065481565b3480156102d6575f80fd5b50600254610191565b3480156102ea575f80fd5b506102f361095f565b60408051948552602085019390935291830152606082015260800161019b565b34801561031e575f80fd5b5061017261032d366004610d80565b610998565b610172610ba6565b348015610345575f80fd5b505f5461029e906001600160a01b031681565b348015610363575f80fd5b506102f3610372366004610d97565b610cb2565b335f908152600160205260409020816103c85760405162461bcd60e51b815260206004820152600e60248201526d125b9d985b1a5908185b5bdd5b9d60921b60448201526064015b60405180910390fd5b80548211156104105760405162461bcd60e51b8152602060048201526014602482015273125b9cdd59999a58da595b9d0819195c1bdcda5d60621b60448201526064016103bf565b80545f9061041f908490610dc4565b90505f606460065484600101546104369190610dd7565b6104409190610dee565b9050808210156104925760405162461bcd60e51b815260206004820152601c60248201527f576f756c6420626520756e646572636f6c6c61746572616c697a65640000000060448201526064016103bf565b83835f015f8282546104a49190610dc4565b9091555050426002840155600380548591905f906104c3908490610dc4565b90915550506040515f90339086908381818185875af1925050503d805f8114610507576040519150601f19603f3d011682016040523d82523d5f602084013e61050c565b606091505b50509050806105535760405162461bcd60e51b8152602060048201526013602482015272115512081d1c985b9cd9995c8819985a5b1959606a1b60448201526064016103bf565b60405185815233907f7084f5476618d8e60b11ef0d7d3f06914655adb8793e28ff7f018d4c76d505d59060200160405180910390a25050505050565b335f908152600160205260409020346105db5760405162461bcd60e51b815260206004820152600e60248201526d09aeae6e840e4cae0c2f2408aa8960931b60448201526064016103bf565b5f8160010154116106215760405162461bcd60e51b815260206004820152601060248201526f4e6f206465627420746f20726570617960801b60448201526064016103bf565b5f816001015434116106335734610639565b81600101545b905080826001015f82825461064e9190610dc4565b9091555050426002830155600480548291905f9061066d908490610dc4565b90915550503481101561070b575f336106868334610dc4565b6040515f81818185875af1925050503d805f81146106bf576040519150601f19603f3d011682016040523d82523d5f602084013e6106c4565b606091505b50509050806107095760405162461bcd60e51b8152602060048201526011602482015270115512081c99599d5b990819985a5b1959607a1b60448201526064016103bf565b505b60405181815233907f0516911bcc3a0a7412a44601057c0a0a1ec628bde049a84284bc4288665344889060200160405180910390a25050565b5f546001600160a01b0316331461076d5760405162461bcd60e51b81526004016103bf90610e0d565b478111156107b45760405162461bcd60e51b8152602060048201526014602482015273496e73756666696369656e742062616c616e636560601b60448201526064016103bf565b5f80546040516001600160a01b039091169083908381818185875af1925050503d805f81146107fe576040519150601f19603f3d011682016040523d82523d5f602084013e610803565b606091505b50509050806108465760405162461bcd60e51b815260206004820152600f60248201526e151c985b9cd9995c8819985a5b1959608a1b60448201526064016103bf565b5050565b5f546001600160a01b031633146108735760405162461bcd60e51b81526004016103bf90610e0d565b6127108111156108b55760405162461bcd60e51b815260206004820152600d60248201526c0a4c2e8ca40e8dede40d0d2ced609b1b60448201526064016103bf565b600555565b5f546001600160a01b031633146108e35760405162461bcd60e51b81526004016103bf90610e0d565b606481101580156108f6575061012c8111155b6109325760405162461bcd60e51b815260206004820152600d60248201526c496e76616c696420726174696f60981b60448201526064016103bf565b600655565b60028181548110610946575f80fd5b5f918252602090912001546001600160a01b0316905081565b600354600454475f831561098f5760035460045461097e906064610dd7565b6109889190610dee565b9050610992565b505f5b90919293565b335f908152600160205260409020816109e45760405162461bcd60e51b815260206004820152600e60248201526d125b9d985b1a5908185b5bdd5b9d60921b60448201526064016103bf565b81471015610a345760405162461bcd60e51b815260206004820152601b60248201527f496e73756666696369656e7420706f6f6c206c6971756964697479000000000060448201526064016103bf565b60065481545f9190610a47906064610dd7565b610a519190610dee565b905080838360010154610a649190610d67565b1115610aa95760405162461bcd60e51b8152602060048201526014602482015273115e18d959591cc818dc99591a5d081b1a5b5a5d60621b60448201526064016103bf565b82826001015f828254610abc9190610d67565b9091555050426002830155600480548491905f90610adb908490610d67565b90915550506040515f90339085908381818185875af1925050503d805f8114610b1f576040519150601f19603f3d011682016040523d82523d5f602084013e610b24565b606091505b5050905080610b6b5760405162461bcd60e51b8152602060048201526013602482015272115512081d1c985b9cd9995c8819985a5b1959606a1b60448201526064016103bf565b60405184815233907fac59582e5396aca512fa873a2047e7f4c80f8f55d4a06cb34a78a0187f62719f9060200160405180910390a250505050565b5f3411610be85760405162461bcd60e51b815260206004820152601060248201526f09aeae6e840c8cae0dee6d2e8408aa8960831b60448201526064016103bf565b335f9081526001602052604081206002810154909103610c4457600280546001810182555f919091527f405787fa12a823e0f2b7631cc41b3ba8828b3321ca811111fa75cd3aa3bb5ace0180546001600160a01b031916331790555b34815f015f828254610c569190610d67565b9091555050426002820155600380543491905f90610c75908490610d67565b909155505060405134815233907f2da466a7b24304f47e87fa2e1e5a81b9831ce54fec19055ce277ca2f39ba42c49060200160405180910390a250565b6001600160a01b0381165f908152600160208190526040822080549181015460065492939092909182918290610ce9876064610dd7565b610cf39190610dee565b905081600101548111610d06575f610d15565b6001820154610d159082610dc4565b600183015490945015610d455760018201548254610d34906064610dd7565b610d3e9190610dee565b9250610d4a565b5f1992505b50509193509193565b634e487b7160e01b5f52601160045260245ffd5b80820180821115610d7a57610d7a610d53565b92915050565b5f60208284031215610d90575f80fd5b5035919050565b5f60208284031215610da7575f80fd5b81356001600160a01b0381168114610dbd575f80fd5b9392505050565b81810381811115610d7a57610d7a610d53565b8082028115828204841417610d7a57610d7a610d53565b5f82610e0857634e487b7160e01b5f52601260045260245ffd5b500490565b6020808252600a908201526927b7363c9030b236b4b760b11b60408201526060019056fea264697066735822122015c8865952718255f0f8cb548fdc167b12642d328829c696fc2379c8671b4d3464736f6c63430008180033",
  "linkReferences": {},
  "deployedLinkReferences": {}
}